S017000046696E616C5F61726475696E6F5F6E2E7372656305
S11300000C9434000C94A00A0C9451000C945100EC
S11300100C9451000C9451000C9451000C94510018
S11300200C9451000C9451000C9487090C945100C9
S11300300C9451000C9451000C94770A0C945100C8
S11300400C9451000C9451000C9451000C945100E8
S11300500C9451000C9451000C9451000C945100D8
S11300600C9451000C94510011241FBECFEFD8E022
S1130070DEBFCDBF11E0A0E0B1E0EEE9F7E202C0DF
S113008005900D92AC31B107D9F721E0ACE1B1E0B4
S113009001C01D92A434B207E1F70E94C4000C947D
S11300A0CD130C940000CF93DF9300D01F92CDB7F3
S11300B0DEB789837B836A8389818A3031F48A81BC
S11300C09B81BC018DE00E94530080EC90E0FC0118
S11300D08081882F90E080729927892BB1F386EC78
S11300E090E02981FC01208380E090E00F900F9044
S11300F00F90DF91CF910895CF93DF9300D0CDB7C8
S1130100DEB79A83898380EC90E0FC0180818823A8
S1130110D4F786EC90E0FC018081882F90E00F906A
S11301200F90DF91CF910895CF93DF93CDB7DEB7D2
S113013085EC90E0FC01108284EC90E020E1FC016D
S1130140208380EC90E020EC30E0F90120812260F3
S1130150FC01208382EC90E026E0FC01208381EC0A
S113016090E028E1FC01208380E091E0909341013C
S1130170809340018EE091E090933F0180933E0193
S11301800000DF91CF9108950F931F93CF93DF93D6
S1130190CDB7DEB7C658D1090FB6F894DEBF0FBE8F
S11301A0CDBF84E290E024E230E0F90120812460B4
S11301B0FC01208384E290E024E230E0F901208114
S11301C02860FC01208384E290E024E230E0F9011D
S11301D020812061FC01208384E290E024E230E06D
S11301E0F90120812062FC0120838AE290E02AE266
S11301F030E0F90120812062FC0120838AE290E052
S11302002AE230E0F90120812061FC01208384E2AC
S113021090E024E230E0F90120812260FC01208397
S113022084E490E024E430E0F90120812260FC01C0
S1130230208385E490E025E430E0F9012081256005
S1130240FC01208384E490E024E430E0F90120817F
S11302502064FC01208387E490E02FEFFC012083DD
S11302608EE690E02EE630E0F90120812260FC0168
S1130270208388E890E024E830E0F901208131818E
S1130280265F3F4FFC01318320838FE690E02FE609
S113029030E0F90120812062FC0120838FE690E0A8
S11302A02FE630E0F90120812160FC01208381E800
S11302B090E021E830E0F90120812064FC012083F2
S11302C081E890E021E830E0F90120812460FC011C
S11302D0208389E690E029E630E0F901208123605B
S11302E0FC0120838DE390E02DE330E0F9012081CF
S11302F02160FC01208389E690E029E630E0F901E1
S113030020812C60FC0120838AE790E02AE730E01A
S1130310F90120812760FC0120838CE790E02CE721
S113032030E0F90120812064FC0120838CE790E017
S11303302CE730E0F90120812F77FC0120838BE743
S113034090E02BE730E0F9012081287FFC01208335
S11303508AE790E02AE730E0F90120812062FC017D
S113036020838AE790E02AE730E0F90120812068C1
S1130370FC0120838AE790E02AE730E0F90120813C
S11303802064FC01208310923701109236011E82F2
S11303901D8218861F821A82198278940E94940002
S11303A08BE290E0FC01108285E290E025E230E0EF
S11303B0F90120812D7FFC01208385E290E025E274
S11303C030E0F90120812B7FFC01208385E290E05D
S11303D025E230E0F9012081277FFC01208385E2BA
S11303E090E025E230E0F90120812F7DFC0120839B
S11303F010922B0110922A0110922D0110922C01BF
S113040010922F0110922E0110923101109230019E
S11304100E94CE0A80E090E0A0EAB0E489A79AA7FF
S1130420ABA7BCA720E030E543E457E469A57AA56F
S11304308BA59CA50E941513DC01CB018DA79EA75B
S1130440AFA7B8AB20E030E040E85FE36DA57EA540
S11304508FA598A90E94F51188232CF481E090E0DF
S11304609AAB89AB3FC020E03FEF4FE757E46DA55F
S11304707EA58FA598A90E94101318164CF520E0AC
S113048030E040E251E469A57AA58BA59CA50E94C1
S11304901513DC01CB01BC01CD010E946C12DC01FF
S11304A0CB019AAB89AB0FC088E893E19CAB8BABD3
S11304B08BA99CA90197F1F79CAB8BAB89A99AA94D
S11304C001979AAB89AB89A99AA9892B69F714C0BA
S11304D06DA57EA58FA598A90E946C12DC01CB01A5
S11304E09AAB89AB89A99AA99EAB8DAB8DA99EA91C
S11304F00197F1F79EAB8DAB02C71C821B8285E28C
S113050090E025E230E0F90120812062FC012083A3
S1130510000080912601909127010D97D0F78091DA
S11305202601909127010897A0F387E490E02CE836
S1130530FC012083000080912601909127010A97F5
S1130540D1F380E090E0A8E4B2E489879A87AB878E
S1130550BC8720E030E543E457E469857A858B85E0
S11305609C850E941513DC01CB018FAB98AFA9AF1A
S1130570BAAF20E030E040E85FE36FA978AD89AD21
S11305809AAD0E94F51188232CF481E090E09CAF91
S11305908BAF3FC020E03FEF4FE757E46FA978AD42
S11305A089AD9AAD0E94101318164CF520E030E086
S11305B040E251E469857A858B859C850E941513F8
S11305C0DC01CB01BC01CD010E946C12DC01CB012A
S11305D09CAF8BAF0FC088E893E19EAF8DAF8DAD1C
S11305E09EAD0197F1F79EAF8DAF8BAD9CAD01979A
S11305F09CAF8BAF8BAD9CAD892B69F71EC06FA9E7
S113060078AD89AD9AAD0E946C12DC01CB019CAF30
S11306108BAF2BAD3CADCE01CF96FC013183208353
S1130620CE01CF96FC01808191810197F1F79E0163
S1130630215C3F4FF9019183808380912601909141
S113064027014C9738F48091260190912701479710
S113065008F0C3C087E490E02AE7FC012083898185
S11306609A8101969A83898380E090E0A8E4B2E4B9
S11306708D879E87AF87B88B8E010F5B1F4F20E05D
S113068030E543E457E46D857E858F8598890E9423
S11306901513DC01CB01F80180839183A283B3831A
S11306A0CE018F5B9F4F20E030E040E85FE3FC0128
S11306B060817181828193810E94F51188234CF4B9
S11306C0CE018B5B9F4F21E030E0FC01318320831E
S11306D069C0CE018F5B9F4F20E03FEF4FE757E4A7
S11306E0FC0160817181828193810E94101318162C
S11306F00CF046C020E030E040E251E46D857E8598
S11307008F8598890E941513DC01CB018E010B5B48
S11307101F4FBC01CD010E946C12DC01CB01F8011A
S11307209183808324C0CE01895B9F4F28E833E105
S1130730FC0131832083CE01895B9F4FFC018081C2
S113074091810197F1F79E01295B3F4FF901918354
S11307508083CE018B5B9F4F9E012B5B3F4FF90142
S11307602081318121503109FC0131832083CE0164
S11307708B5B9F4FFC0180819181892BA1F6B4C1D1
S11307808E010B5B1F4FCE018F5B9F4FFC0160817D
S11307907181828193810E946C12DC01CB01F8018A
S11307A091838083CE01875B9F4F9E012B5B3F4FDC
S11307B0F90120813181FC0131832083CE01875BE3
S11307C09F4FFC01808191810197F1F79E01275B86
S11307D03F4FF9019183808387C187E490E02DE640
S11307E0FC0120838BE290E02BE230E0F9012081D0
S11307F02062FC01208380E090E0A8E4B2E48D8BC9
S11308009E8BAF8BB88F8E010B5A1F4F20E030E5C3
S113081043E457E46D897E898F89988D0E9415136E
S1130820DC01CB01F80180839183A283B383CE01E1
S11308308B5A9F4F20E030E040E85FE3FC01608189
S11308407181828193810E94F51188234CF4CE0139
S1130850875A9F4F21E030E0FC013183208369C037
S1130860CE018B5A9F4F20E03FEF4FE757E4FC0146
S113087060817181828193810E94101318160CF09B
S113088046C020E030E040E251E46D897E898F89E2
S1130890988D0E941513DC01CB018E01075A1F4F5E
S11308A0BC01CD010E946C12DC01CB01F8019183E3
S11308B0808324C0CE01855A9F4F28E833E1FC0190
S11308C031832083CE01855A9F4FFC018081918121
S11308D00197F1F79E01255A3F4FF90191838083D7
S11308E0CE01875A9F4F9E01275A3F4FF90120811D
S11308F0318121503109FC0131832083CE01875A93
S11309009F4FFC0180819181892BA1F62CC08E011F
S1130910075A1F4FCE018B5A9F4FFC016081718192
S1130920828193810E946C12DC01CB01F8019183D6
S11309308083CE01835A9F4F9E01275A3F4FF9016E
S113094020813181FC0131832083CE01835A9F4F62
S1130950FC01808191810197F1F79E01235A3F4F59
S1130960F901918380838BE290E02BE230E0F9017E
S113097020812F7DFC01208380E090E0A8E4B2E494
S1130980898F9A8FAB8FBC8F8E01055B1F4F20E040
S113099030E543E457E4698D7A8D8B8D9C8D0E94FC
S11309A01513DC01CB01F80180839183A283B38307
S11309B0CE01855B9F4F20E030E040E85FE3FC011F
S11309C060817181828193810E94F51188234CF4A6
S11309D0CE01815B9F4F21E030E0FC013183208315
S11309E069C0CE01855B9F4F20E03FEF4FE757E49E
S11309F0FC0160817181828193810E941013181619
S1130A000CF046C020E030E040E251E4698D7A8D7C
S1130A108B8D9C8D0E941513DC01CB018E01015B33
S1130A201F4FBC01CD010E946C12DC01CB01F80107
S1130A309183808324C0CE018F5A9F4F28E833E1ED
S1130A40FC0131832083CE018F5A9F4FFC018081AA
S1130A5091810197F1F79E012F5A3F4FF90191833C
S1130A608083CE01815B9F4F9E01215B3F4FF90143
S1130A702081318121503109FC0131832083CE0151
S1130A80815B9F4FFC0180819181892BA1F62CC051
S1130A908E01015B1F4FCE01855B9F4FFC0160817E
S1130AA07181828193810E946C12DC01CB01F80177
S1130AB091838083CE018D5A9F4F9E01215B3F4FCE
S1130AC0F90120813181FC0131832083CE018D5ACB
S1130AD09F4FFC01808191810197F1F79E012D5A6E
S1130AE03F4FF9019183808387E490E02CE8FC0177
S1130AF02083000080912601909127014997D1F32A
S1130B008091260190912701C69738F4809126019F
S1130B10909127018F9708F0C3C087E490E02AE7FB
S1130B20FC01208389819A8101969A83898380E0DC
S1130B3090E0A8E4B2E4898B9A8BAB8BBC8B8E01DA
S1130B40015A1F4F20E030E543E457E469897A896C
S1130B508B899C890E941513DC01CB01F8018083E9
S1130B609183A283B383CE01815A9F4F20E030E06A
S1130B7040E85FE3FC0160817181828193810E947E
S1130B80F51188234CF4CE018D599F4F21E030E0BC
S1130B90FC013183208369C0CE01815A9F4F20E03C
S1130BA03FEF4FE757E4FC016081718182819381BB
S1130BB00E94101318160CF046C020E030E040E20A
S1130BC051E469897A898B899C890E941513DC0117
S1130BD0CB018E010D591F4FBC01CD010E946C1237
S1130BE0DC01CB01F8019183808324C0CE018B59B1
S1130BF09F4F28E833E1FC0131832083CE018B59D8
S1130C009F4FFC01808191810197F1F79E012B593F
S1130C103F4FF90191838083CE018D599F4F9E01EF
S1130C202D593F4FF9012081318121503109FC01B7
S1130C3031832083CE018D599F4FFC0180819181A6
S1130C40892BA1F6B4C18E010D591F4FCE01815AD3
S1130C509F4FFC0160817181828193810E946C129B
S1130C60DC01CB01F80191838083CE0189599F4F28
S1130C709E012D593F4FF90120813181FC013183BF
S1130C802083CE0189599F4FFC0180819181019776
S1130C90F1F79E0129593F4FF9019183808387C160
S1130CA087E490E02DE6FC0120838BE290E02BE2C8
S1130CB030E0F90120812062FC01208380E090E093
S1130CC0A8E4B2E489A39AA3ABA3BCA38E010D58F4
S1130CD01F4F20E030E543E457E469A17AA18BA1DA
S1130CE09CA10E941513DC01CB01F8018083918340
S1130CF0A283B383CE018D589F4F20E030E040E8BB
S1130D005FE3FC0160817181828193810E94F5110E
S1130D1088234CF4CE0189589F4F21E030E0FC0138
S1130D203183208369C0CE018D589F4F20E03FEF6F
S1130D304FE757E4FC0160817181828193810E94B5
S1130D40101318160CF046C020E030E040E251E4E5
S1130D5069A17AA18BA19CA10E941513DC01CB018E
S1130D608E0109581F4FBC01CD010E946C12DC0199
S1130D70CB01F8019183808324C0CE0187589F4F13
S1130D8028E833E1FC0131832083CE0187589F4F4B
S1130D90FC01808191810197F1F79E0127583F4F13
S1130DA0F90191838083CE0189589F4F9E01295870
S1130DB03F4FF9012081318121503109FC013183F8
S1130DC02083CE0189589F4FFC0180819181892B1A
S1130DD0A1F62CC08E0109581F4FCE018D589F4F8C
S1130DE0FC0160817181828193810E946C12DC011B
S1130DF0CB01F80191838083CE0185589F4F9E01DA
S1130E0029583F4FF90120813181FC01318320832E
S1130E10CE0185589F4FFC01808191810197F1F7A4
S1130E209E0125583F4FF901918380838BE290E026
S1130E302BE230E0F90120812F7DFC01208380E04A
S1130E4090E0A8E4B2E48DA39EA3AFA3B8A78E015B
S1130E5007591F4F20E030E543E457E46DA17EA11C
S1130E608FA198A50E941513DC01CB01F8018083A2
S1130E709183A283B383CE0187599F4F20E030E052
S1130E8040E85FE3FC0160817181828193810E946B
S1130E90F51188234CF4CE0183599F4F21E030E0B3
S1130EA0FC013183208369C0CE0187599F4F20E024
S1130EB03FEF4FE757E4FC016081718182819381A8
S1130EC00E94101318160CF046C020E030E040E2F7
S1130ED051E46DA17EA18FA198A50E941513DC0198
S1130EE0CB018E0103591F4FBC01CD010E946C122E
S1130EF0DC01CB01F8019183808324C0CE018159A8
S1130F009F4F28E833E1FC0131832083CE018159CE
S1130F109F4FFC01808191810197F1F79E01215936
S1130F203F4FF90191838083CE0183599F4F9E01E6
S1130F3023593F4FF9012081318121503109FC01AE
S1130F4031832083CE0183599F4FFC01808191819D
S1130F50892BA1F62CC08E0103591F4FCE0187594E
S1130F609F4FFC0160817181828193810E946C1288
S1130F70DC01CB01F80191838083CE018F589F4F10
S1130F809E0123593F4FF90120813181FC013183B6
S1130F902083CE018F589F4FFC018081918101975E
S1130FA0F1F79E012F583F4FF90191838083898186
S1130FB09A81892B49F48BE290E02BE230E0F9012D
S1130FC020812062FC01208381E090E090932B013A
S1130FD080932A0187E490E020E5FC01208300004F
S1130FE080912601909127010C97D0F780912601DA
S1130FF0909127010897A0F385E290E025E230E084
S1131000F90120812260FC01208381E090E090932B
S11310102D0180932C0180912601909127014797FF
S1131020E0F480912601909127014297B0F081E08D
S113103090E090932F0180932E0185E290E025E2C9
S113104030E0F90120812460FC012083000087E462
S113105090E02CE8FC01208306C08B819C810196E2
S11310609C838B83D8CF809126019091270182970E
S1131070D0F780912601909127014B97A0F385E248
S113108090E025E230E0F90120812860FC01208312
S113109081E090E0909331018093300180911C01B4
S11310A090911D01059700F188E790E0FC01808193
S11310B091818730924050F085E290E025E230E063
S11310C0F90120812860FC01208309C085E290E0B9
S11310D025E230E0F9012081277FFC012083109272
S11310E01D0110921C0112C18BE290E02BE230E052
S11310F0F90120812061FC01208380E090E0AAE7CF
S1131100B4E48D8F9E8FAF8FB8A38E0103581F4F09
S113111020E030E543E457E46D8D7E8D8F8D98A1FA
S11311200E941513DC01CB01F80180839183A28313
S1131130B383CE0183589F4F20E030E040E85FE363
S1131140FC0160817181828193810E94F511882361
S11311504CF4CE018F579F4F21E030E0FC013183E6
S1131160208369C0CE0183589F4F20E03FEF4FE7B3
S113117057E4FC0160817181828193810E94101384
S113118018160CF046C020E030E040E251E46D8DCA
S11311907E8D8F8D98A10E941513DC01CB018E01E9
S11311A00F571F4FBC01CD010E946C12DC01CB0113
S11311B0F8019183808324C0CE018D579F4F28E886
S11311C033E1FC0131832083CE018D579F4FFC0115
S11311D0808191810197F1F79E012D573F4FF901CD
S11311E091838083CE018F579F4F9E012F573F4F8E
S11311F0F9012081318121503109FC01318320839F
S1131200CE018F579F4FFC0180819181892BA1F6DC
S11312102CC08E010F571F4FCE0183589F4FFC01E6
S113122060817181828193810E946C12DC01CB0107
S1131230F80191838083CE018B579F4F9E012F57D6
S11312403F4FF90120813181FC0131832083CE019C
S11312508B579F4FFC01808191810197F1F79E018B
S11312602B573F4FF901918380838BE290E02BE26F
S113127030E0F90120812F7EFC01208310921F01B0
S113128010921E018BE290E02BE230E0F901208104
S11312902F7DFC01208385E290E025E230E0F90116
S11312A020812D7FFC01208385E290E025E230E05F
S11312B0F90120812B7FFC01208385E290E025E267
S11312C030E0F9012081277FFC01208385E290E052
S11312D025E230E0F90120812F7DFC01208310926A
S11312E02B0110922A0110922D0110922C011092C0
S11312F02F0110922E011092310110923001809131
S11313001E0190911F01019709F4F7C84DC81F925F
S11313100F9200905F000F9211242F933F934F93ED
S11313205F936F937F938F939F93AF93BF93EF9349
S1131330FF93CF93DF93CDB7DEB781E890E0FC0154
S11313408081882F90E080749927892B09F44CC000
S1131350209138013091390144E6429FC001439FF6
S1131360900D11248C529A419C01AFE3B8EF0E9476
S113137082130024880F991F001C880F991F001CDA
S1131380892F902D24E6289FA001299F500D112418
S11313909A01A9E5B0E60E9482139A01281B390B31
S11313A036952795820F931F0024880F991F001CE0
S11313B0880F991F001C892F902D909327018093EB
S11313C0260186E890E0FC018081918190932101BF
S11313D08093200181E890E021E830E0F901208148
S11313E02F7BFC0120836EC086E890E0FC018081A5
S11313F09181909323018093220181E890E021E878
S113140030E0F90120812064FC0120832091220135
S1131410309123018091200190912101A901481B61
S1131420590BCA01909325018093240184E890E02C
S1131430FC0111821082809128019091290101966A
S11314409093290180932801209134013091350132
S11314508091240190912501820F931F909335016F
S1131460809334018091280190912901C29751F50C
S11314708091340190913501969587959C01ABE755
S1131480B4E10E94821396958795909339018093D5
S113149038011092290110922801109235011092FE
S11314A0340180913801909139018334910550F4CD
S11314B080913801909139018D5B9F4F9093390150
S11314C0809338010000DF91CF91FF91EF91BF919C
S11314D0AF919F918F917F916F915F914F913F91C8
S11314E02F910F9000925F000F901F9018951F92FC
S11314F00F9200905F000F9211242F933F938F93CC
S11315009F93EF93FF93CF93DF93CDB7DEB785E23D
S113151090E025E230E0F901308120E12327FC014D
S113152020830000DF91CF91FF91EF919F918F91E4
S11315303F912F910F9000925F000F901F9018958C
S11315401F920F9200905F000F9211242F933F93EC
S11315508F939F93EF93FF93CF93DF93CDB7DEB732
S11315608CE390E02CE330E0F90120812E7FFC0134
S1131570208381E090E090931F0180931E0100007E
S1131580DF91CF91FF91EF919F918F913F912F9197
S11315900F9000925F000F901F9018950F931F9368
S11315A0CF93DF93CDB7DEB7C05AD1090FB6F89405
S11315B0DEBF0FBECDBF8091400190914101BC01BF
S11315C084E790E00E94911380E090E0A8ECB2E4FC
S11315D089839A83AB83BC838E010B571F4F25E508
S11315E035E545E852E469817A818B819C810E94CA
S11315F01513DC01CB01F80180839183A283B383AB
S11316008E0107571F4F20E030E048E452E469811F
S11316107A818B819C810E941513DC01CB01F80136
S113162080839183A283B383CE018B579F4F20E0A5
S113163030E040E85FE3FC01608171818281938145
S11316400E94F51188233CF4CE0183579F4F21E07B
S1131650FC0120832CC1CE0187579F4F20E03FEF30
S11316604FE757E4FC0160817181828193810E947C
S1131670101318160CF0CDC020E030E04AE754E413
S113168069817A818B819C810E94FA11DC01CB01F2
S11316909E0122573F4FF90180839183A283B38334
S11316A08E010E561F4FCE0182579F4F20E030E52A
S11316B043E457E4FC0160817181828193810E943B
S11316C01513DC01CB01F80180839183A283B383DA
S11316D0CE018E569F4F20E030E040E85FE3FC01EE
S11316E060817181828193810E94F51188234CF479
S11316F0CE018A569F4F21E030E0FC0131832083E4
S11317006DC0CE018E569F4F20E03FEF4FE757E468
S1131710FC0160817181828193810E9410131816EB
S11317200CF04AC0CE0182579F4F20E030E040E2E7
S113173051E4FC0160817181828193810E941513BF
S1131740DC01CB018E010A561F4FBC01CD010E9462
S11317506C12DC01CB01F8019183808324C0CE019B
S113176088569F4F28E833E1FC0131832083CE0162
S113177088569F4FFC01808191810197F1F79E016A
S113178028563F4FF90191838083CE018A569F4F9B
S11317909E012A563F4FF9012081318121503109A0
S11317A0FC0131832083CE018A569F4FFC01808146
S11317B09181892BA1F67BC08E010A561F4FCE0161
S11317C08E569F4FFC0160817181828193810E94BA
S11317D06C12DC01CB01F80191838083CE01865623
S11317E09F4F9E012A563F4FF90120813181FC0110
S11317F031832083CE0186569F4FFC0180819181E5
S11318000197F1F79E0126563F4FF901918380839A
S11318104EC0CE018B579F4F20E030E04FE753E49A
S1131820FC0160817181828193810E9410131816DA
S11318306CF58E0104561F4FCE0187579F4FFC0154
S113184060817181828193810E946C12DC01CB01E1
S1131850F80191838083CE0182569F4F9E012456C6
S11318603F4FF90120813181FC0131832083CE0176
S113187082569F4FFC01808191810197F1F79E016F
S113188022563F4FF9019183808328C08E0103576C
S11318901F4FCE018B579F4FFC0160817181828164
S11318A093810E946C12DC01CB01F8018083CE018C
S11318B080569F4F9E0123573F4FF9012081FC0121
S11318C02083CE0180569F4FFC018081282F2A95CA
S11318D0F1F7CE0180569F4FFC0120838091400197
S11318E090914101BC0185E690E00E94911380E053
S11318F090E0A8ECB2E48D839E83AF83B8878E0119
S113190007591F4F25E535E545E852E46D817E8191
S11319108F8198850E941513DC01CB01F801808327
S11319209183A283B3838E0103591F4F20E030E0DB
S113193048E452E46D817E818F8198850E9415135D
S1131940DC01CB01F80180839183A283B383CE01B0
S113195087599F4F20E030E040E85FE3FC0160815D
S11319607181828193810E94F51188233CF4CE0118
S11319708F589F4F21E0FC0120832CC1CE01835955
S11319809F4F20E03FEF4FE757E4FC0160817181F6
S1131990828193810E94101318160CF0CDC020E0B0
S11319A030E04AE754E46D817E818F8198850E94FE
S11319B0FA11DC01CB019E012E583F4FF9018083BF
S11319C09183A283B3838E010A581F4FCE018E5890
S11319D09F4F20E030E543E457E4FC0160817181CE
S11319E0828193810E941513DC01CB01F80180836D
S11319F09183A283B383CE018A589F4F20E030E0C5
S1131A0040E85FE3FC0160817181828193810E94DF
S1131A10F51188234CF4CE0186589F4F21E030E025
S1131A20FC01318320836DC0CE018A589F4F20E092
S1131A303FEF4FE757E4FC0160817181828193811C
S1131A400E94101318160CF04AC0CE018E589F4FF6
S1131A5020E030E040E251E4FC0160817181828148
S1131A6093810E941513DC01CB018E0106581F4F90
S1131A70BC01CD010E946C12DC01CB01F801918301
S1131A80808324C0CE0184589F4F28E833E1FC01B1
S1131A9031832083CE0184589F4FFC018081918142
S1131AA00197F1F79E0124583F4FF90191838083F8
S1131AB0CE0186589F4F9E0126583F4FF901208141
S1131AC0318121503109FC0131832083CE018658B4
S1131AD09F4FFC0180819181892BA1F67BC08E01EF
S1131AE006581F4FCE018A589F4FFC0160817181B7
S1131AF0828193810E946C12DC01CB01F8019183F5
S1131B008083CE0182589F4F9E0126583F4FF90192
S1131B1020813181FC0131832083CE0182589F4F83
S1131B20FC01808191810197F1F79E0122583F4F7A
S1131B30F901918380834EC0CE0187599F4F20E0E5
S1131B4030E04FE753E4FC0160817181828193812D
S1131B500E94101318166CF58E0100581F4FCE0109
S1131B6083599F4FFC0160817181828193810E941E
S1131B706C12DC01CB01F80191838083CE018E5776
S1131B809F4F9E0120583F4FF90120813181FC0174
S1131B9031832083CE018E579F4FFC018081918138
S1131BA00197F1F79E012E573F4FF90191838083EE
S1131BB028C08E010F581F4FCE0187599F4FFC013B
S1131BC060817181828193810E946C12DC01CB015E
S1131BD0F8018083CE018C579F4F9E012F583F4FB1
S1131BE0F9012081FC012083CE018C579F4FFC0119
S1131BF08081282F2A95F1F7CE018C579F4FFC0145
S1131C0020838091400190914101BC0183E790E0E1
S1131C100E94911380E090E0A8ECB2E489879A874F
S1131C20AB87BC878E01035B1F4F25E535E545E88F
S1131C3052E469857A858B859C850E941513DC01A5
S1131C40CB01F80180839183A283B3838E010F5A61
S1131C501F4F20E030E048E452E469857A858B85A3
S1131C609C850E941513DC01CB01F80180839183CC
S1131C70A283B383CE01835B9F4F20E030E040E832
S1131C805FE3FC0160817181828193810E94F5117F
S1131C9088233CF4CE018B5A9F4F21E0FC01208322
S1131CA02CC1CE018F5A9F4F20E03FEF4FE757E4FE
S1131CB0FC0160817181828193810E941013181646
S1131CC00CF0CDC020E030E04AE754E469857A8521
S1131CD08B859C850E94FA11DC01CB019E012A5A56
S1131CE03F4FF90180839183A283B3838E01065A07
S1131CF01F4FCE018A5A9F4F20E030E543E457E45A
S1131D00FC0160817181828193810E941513DC0141
S1131D10CB01F80180839183A283B383CE01865AD9
S1131D209F4F20E030E040E85FE3FC016081718177
S1131D30828193810E94F51188234CF4CE01825A4A
S1131D409F4F21E030E0FC01318320836DC0CE0140
S1131D50865A9F4F20E03FEF4FE757E4FC01608134
S1131D607181828193810E94101318160CF04AC06D
S1131D70CE018A5A9F4F20E030E040E251E4FC015A
S1131D8060817181828193810E941513DC01CB01F2
S1131D908E01025A1F4FBC01CD010E946C12DC015E
S1131DA0CB01F8019183808324C0CE01805A9F4FD8
S1131DB028E833E1FC0131832083CE01805A9F4F10
S1131DC0FC01808191810197F1F79E01205A3F4FD8
S1131DD0F90191838083CE01825A9F4F9E01225A3A
S1131DE03F4FF9012081318121503109FC013183B8
S1131DF02083CE01825A9F4FFC0180819181892BDF
S1131E00A1F67BC08E01025A1F4FCE01865A9F4F06
S1131E10FC0160817181828193810E946C12DC01DA
S1131E20CB01F80191838083CE018E599F4F9E018F
S1131E30225A3F4FF90120813181FC0131832083F3
S1131E40CE018E599F4FFC01808191810197F1F75A
S1131E509E012E593F4FF901918380834EC0CE01DC
S1131E60835B9F4F20E030E04FE753E4FC01608147
S1131E707181828193810E94101318166CF58E0172
S1131E800C591F4FCE018F5A9F4FFC016081718105
S1131E90828193810E946C12DC01CB01F801918351
S1131EA08083CE018A599F4F9E012C593F4FF901DF
S1131EB020813181FC0131832083CE018A599F4FD7
S1131EC0FC01808191810197F1F79E012A593F4FCE
S1131ED0F9019183808328C08E010B5A1F4FCE01D4
S1131EE0835B9F4FFC0160817181828193810E9499
S1131EF06C12DC01CB01F8018083CE0188599F4F1D
S1131F009E012B5A3F4FF9012081FC012083CE0111
S1131F1088599F4FFC018081282F2A95F1F7CE0123
S1131F2088599F4FFC012083809140019091410189
S1131F30BC0184E790E00E94911380E090E0A8EC5B
S1131F40B2E48D879E87AF87B88B25E535E545E8F4
S1131F5052E46D857E858F8598890E941513DC0176
S1131F60CB0189AB9AABABABBCAB20E030E048E42F
S1131F7052E46D857E858F8598890E941513DC0156
S1131F80CB018DAB9EABAFABB8AF20E030E040E807
S1131F905FE369A97AA98BA99CA90E94F5118823FA
S1131FA01CF481E089AF09C120E03FEF4FE757E41B
S1131FB06DA97EA98FA998AD0E94101318160CF074
S1131FC0BEC020E030E04AE754E46D857E858F850D
S1131FD098890E94FA11DC01CB018AAF9BAFACAFA8
S1131FE0BDAF8E01025C1F4F20E030E543E457E4AF
S1131FF06AAD7BAD8CAD9DAD0E941513DC01CB01A8
S1132000F80180839183A283B383CE01CE9620E02E
S113201030E040E85FE3FC0160817181828193815B
S11320200E94F51188234CF4CE018E5B9F4F21E072
S113203030E0FC013183208367C0CE01CE9620E0DE
S11320403FEF4FE757E4FC01608171818281938106
S11320500E94101318160CF046C020E030E040E255
S113206051E46AAD7BAD8CAD9DAD0E941513DC01CE
S1132070CB018E010E5B1F4FBC01CD010E946C127F
S1132080DC01CB01F8019183808324C0CE018C5BF9
S11320909F4F28E833E1FC0131832083CE018C5B20
S11320A09F4FFC01808191810197F1F79E012C5B88
S11320B03F4FF90191838083CE018E5B9F4F9E0138
S11320C02E5B3F4FF9012081318121503109FC0100
S11320D031832083CE018E5B9F4FFC0180819181EF
S11320E0892BA1F66AC08E010E5B1F4FCE01CE96DE
S11320F0FC0160817181828193810E946C12DC01F8
S1132100CB01F80191838083CE018A5B9F4F9E01AE
S11321102E5B3F4FF90120813181FC013183208303
S1132120CE018A5B9F4FFC01808191810197F1F779
S11321309E012A5B3F4FF901918380833EC020E0DA
S113214030E04FE753E469A97AA98BA99CA90E94BE
S1132150101318164CF58E01085B1F4F6DA97EA94C
S11321608FA998AD0E946C12DC01CB01F801918318
S11321708083CE01865B9F4F9E01285B3F4FF90110
S113218020813181FC0131832083CE01865B9F4F06
S1132190FC01808191810197F1F79E01265B3F4FFD
S11321A0F901918380831CC069A97AA98BA99CA990
S11321B00E946C12DC01CB0189AFCE01845B9F4F7E
S11321C029ADFC012083CE01845B9F4FFC018081FB
S11321D0282F2A95F1F7CE01845B9F4FFC012083C1
S11321E08091400190914101BC018DE090E00E94FA
S11321F0911380E090E0A8ECB2E4898B9A8BAB8BCE
S1132200BC8B25E535E545E852E469897A898B89F3
S11322109C890E941513DC01CB018D8B9E8BAF8BA7
S1132220B88F20E030E048E452E469897A898B89E8
S11322309C890E941513DC01CB01898F9A8FAB8F87
S1132240BC8F20E030E040E85FE36D897E898F89B0
S1132250988D0E94F51188231CF481E08D8FB2C003
S113226020E03FEF4FE757E4698D7A8D8B8D9C8D8D
S11322700E94101318160CF07BC020E030E04AE7EF
S113228054E469897A898B899C890E94FA11DC015A
S1132290CB018E8F9F8FA8A3B9A320E030E543E440
S11322A057E46E8D7F8D88A199A10E941513DC01DE
S11322B0CB018AA39BA3ACA3BDA320E030E040E8FC
S11322C05FE36AA17BA18CA19DA10E94F5118823E3
S11322D02CF481E090E09FA38EA33FC020E03FEF69
S11322E04FE757E46AA17BA18CA19DA10E94101322
S11322F018164CF520E030E040E251E46E8D7F8DFD
S113230088A199A10E941513DC01CB01BC01CD0168
S11323100E946C12DC01CB019FA38EA30FC088E83E
S113232093E199A788A788A599A50197F1F799A79B
S113233088A78EA19FA101979FA38EA38EA19FA181
S1132340892B69F73FC06AA17BA18CA19DA10E9442
S11323506C12DC01CB019FA38EA38EA19FA19BA72E
S11323608AA78AA59BA50197F1F79BA78AA72AC0EC
S113237020E030E04FE753E46D897E898F89988DA2
S11323800E9410131816ACF4698D7A8D8B8D9C8D78
S11323900E946C12DC01CB019DA78CA78CA59DA586
S11323A09FA78EA78EA59FA50197F1F79FA78EA73C
S11323B00FC06D897E898F89988D0E946C12DC0113
S11323C0CB018D8F8D8D88AB88A98A95F1F788AB69
S11323D00000C056DF4F0FB6F894DEBF0FBECDBF6E
S11323E0DF91CF911F910F9108950E949B1208F4E1
S11323F081E008950E940E120C94D6120E94CF120E
S113240058F00E94C81240F029F45F3F29F00C9460
S1132410BF1251110C940A130C94C5120E94E712B6
S113242068F39923B1F3552391F3951B550BBB27FF
S1132430AA2762177307840738F09F5F5F4F220F44
S1132440331F441FAA1FA9F335D00E2E3AF0E0E83B
S113245032D091505040E695001CCAF72BD0FE2F85
S113246029D0660F771F881FBB1F26173707480719
S1132470AB07B0E809F0BB0B802DBF01FF279358D1
S11324805F4F3AF09E3F510578F00C94BF120C94C4
S11324900A135F3FE4F3983ED4F3869577956795E6
S11324A0B795F7959F5FC9F7880F911D9695879506
S11324B097F90895E1E0660F771F881FBB1F621725
S11324C073078407BA0720F0621B730B840BBA0BE3
S11324D0EE1F88F7E09508950E94EF1288F09F5749
S11324E098F0B92F9927B751B0F0E1F0660F771F34
S11324F0881F991F1AF0BA95C9F714C0B13091F02A
S11325000E940913B1E008950C940913672F782FE2
S11325108827B85F39F0B93FCCF3869577956795EE
S1132520B395D9F73EF490958095709561957F4F5A
S11325308F4F9F4F0895990F0008550FAA0BE0E89D
S1132540FEEF16161706E807F907C0F01216130671
S1132550E407F50798F0621B730B840B950B39F4B1
S11325600A2661F0232B242B252B21F408950A2617
S113257009F4A140A6958FEF811D811D089597F957
S11325809F6780E870E060E008959FEF80EC089515
S113259000240A941616170618060906089500243E
S11325A00A9412161306140605060895092E0394B8
S11325B0000C11F4882352F0BB0F40F4BF2B11F42C
S11325C060FF04C06F5F7F4F8F4F9F4F089557FD8B
S11325D09058440F551F59F05F3F71F04795880F8D
S11325E097FB991F61F09F3F79F087950895121624
S11325F013061406551FF2CF4695F1DF08C01616D0
S113260017061806991FF1CF869571056105089480
S11326100895E894BB2766277727CB0197F9089597
S11326200E949B1208F48FEF08950E9428130C94C3
S1132630D6120E94C81238F00E94CF1220F09523BF
S113264011F00C94BF120C94C51211240C940A13AB
S11326500E94E71270F3959FC1F3950F50E0551F48
S1132660629FF001729FBB27F00DB11D639FAA27E3
S1132670F00DB11DAA1F649F6627B00DA11D661F32
S1132680829F2227B00DA11D621F739FB00DA11D53
S1132690621F839FA00D611D221F749F3327A00D0D
S11326A0611D231F849F600D211D822F762F6A2FA9
S11326B011249F5750409AF0F1F088234AF0EE0F0E
S11326C0FF1FBB1F661F771F881F91505040A9F73B
S11326D09E3F510580F00C94BF120C940A135F3F87
S11326E0E4F3983ED4F3869577956795B795F79577
S11326F0E7959F5FC1F7FE2B880F911D96958795EF
S113270097F90895A29FB001B39FC001A39F700DD4
S1132710811D1124911DB29F700D811D1124911DE5
S113272008950F931F93CF93DF93FB01238121FD22
S113273003C08FEF9FEF2CC022FF16C04681578144
S1132740248135814217530744F4A081B1819D014E
S11327502F5F3F4F318320838C93268137812F5FF6
S11327603F4F3783268314C08B01EC01FB010084A7
S1132770F185E02D0995892BE1F6D80116968D9106
S11327809C911797019617969C938E931697CE015A
S1112790DF91CF911F910F910895F894FFCF20
S113279E00000002000000005300000000000000D2
S10F27AE00010000000000007C0000009E
S903011EDD
